:020000040800F2
:10000000005000203D3F0008651F0008671F0008E2
:10001000691F00086B1F00086D1F0008000000002A
:100020000000000000000000000000006F1F00083A
:10003000711F000800000000731F0008751F0008F2
:10004000853F0008853F0008853F0008853F000880
:10005000853F0008853F0008853F0008853F000870
:10006000853F0008853F0008853F00087D1F000888
:10007000853F0008853F0008853F0008853F000850
:10008000853F0008853F00088D1F0008853F000858
:10009000853F0008853F0008853F0008853F000830
:1000A000853F0008853F0008853F0008853F000820
:1000B000853F0008853F0008853F0008853F000810
:1000C000853F0008853F0008853F0008853F000800
:1000D000853F00089D1F0008853F0008853F0008F8
:1000E000853F0008853F0008853F000800000000AC
:1000F0000000000000000000000000000000000000
:0C01000000000000000000005FF808F1A3
:10010C000348044B834202D0034B03B1184770479A
:10011C007000002070000020000000000548064B15
:10012C001B1AD90F01EBA301491002D0034B03B1E9
:10013C00184770477000002070000020000000007D
:10014C0010B5064C237843B9FFF7DAFF044B13B113
:10015C000448AFF300800123237010BD7000002011
:10016C0000000000883F000808B5044B1BB104498F
:10017C000448AFF30080BDE80840CFE70000000062
:10018C0074000020883F0008014B1868704700BFBE
:10019C000000002070B50D4E0D4D761BB61006D02C
:1001AC00002455F8043B01349847A642F9D1094E76
:1001BC00094D03F0E3FE761BB61006D0002455F86B
:1001CC00043B01349847A642F9D170BD8840000821
:1001DC00884000088C40000888400008830730B530
:1001EC0048D0541E002A3FD00346CAB201E0013C5D
:1001FC003AD303F8012B9D07F9D1032C2DD9CDB29D
:10020C0045EA05250F2C45EA054536D9A4F110021F
:10021C0022F00F0C03F1200EE6444FEA121C03F1FE
:10022C00100242E9045542E9025510327245F8D1E8
:10023C000CF1010214F00C0F03EB021204F00F0C82
:10024C0013D0ACF1040323F003030433134442F83A
:10025C00045B9342FBD10CF003042CB1CAB21C44D6
:10026C0003F8012B9C42FBD130BD64461346002C95
:10027C00F4D1F9E703461446BFE71A46A446E0E773
:10028C000EB410B5044683B008B183695BB106ABFC
:10029C002046059AA168019300F014FA03B0BDE85A
:1002AC00104003B0704700F013F9F0E70FB410B52D
:1002BC000A4B82B01C680CB1A3695BB105AB20463C
:1002CC00049AA168019300F0FDF902B0BDE810405A
:1002DC0004B07047204600F0FBF8EFE70000002068
:1002EC0000207047014900F033B900BF2911000804
:1002FC0000207047682270B54D1E02FB05F50E46B6
:10030C0005F1740100F048F9044640B100210C30AD
:10031C00C4E9016005F168022160FFF75FFF204628
:10032C0070BD00BF274B2DE9F0411E680746B3692D
:10033C0053B34FF004084836D6E90134013B04D5D9
:10034C001EE05A1C04F168041AD0B4F90C50013B9D
:10035C00002DF6D11C4B08222946C4E90055C4E9EE
:10036C000253C4E904556566A56104F15C00FFF70E
:10037C0035FFC4E90D55C4E912552046BDE8F0819E
:10038C0035682DB12E46D7E7304600F01FF8D0E780
:10039C004FF4D671384600F0FFF8044668B105609A
:1003AC0029460546C0F804800C304FF4D072A0608A
:1003BC00FFF714FF34602E46BEE70C2330603B6021
:1003CC00DBE700BFA03F00080100FFFF0023334A1A
:1003DC002DE9F0471268C0E912339042036508BF5B
:1003EC0001232F4908BF836181620546FFF79AFFFD
:1003FC00034628466B60FFF795FFA860284600244B
:10040C00FFF790FF04236E68DFF898A0DFF8989050
:10041C00DFF89880264FE8600822F3602146C6E991
:10042C000044C6E904447466B460B46106F15C002F
:10043C00FFF7D4FE1F4BC6E9086AC6E90A98376372
:10044C00AE680822F3602146C6E90044C6E90444BC
:10045C007466B460B46106F15C00FFF7BFFE164B26
:10046C00C6E9086AC6E90A983763EE682146F36064
:10047C000822C6E90044C6E904447466B460B46159
:10048C0006F15C00FFF7AAFE0123C6E9086AC6E97B
:10049C000B87C6F82890AB61BDE8F087A03F000839
:1004AC00F1020008790D0008A10D0008E10D00080B
:1004BC00010E00080900010012000200024B034962
:1004CC00186800F045B800BFA03F000829110008CB
:1004DC00836903B97AE77047704700BF704700BF64
:1004EC00704700BF704700BF024B0349186800F00B
:1004FC000FB800BF00000020ED020008024B0349BA
:10050C00186800F005B800BF00000020FD020008CC
:10051C002DE9F0410026884600F14807D7E901543F
:10052C00013D0ED4A389013D012B06D9B4F90E303F
:10053C00013302D02046C04706436B1C04F168040B
:10054C00F0D13F68002FE9D13046BDE8F08100BF03
:10055C002DE9F8434FF000090746884600F148069C
:10056C00D6E90154013D10D4A389013D012B08D9D2
:10057C00B4F90E30013304D021463846C04749EA5D
:10058C0000096B1C04F16804EED13668002EE7D12B
:10059C004846BDE8F88300BFF8B5CD1C25F003052F
:1005AC0008350C2D38BF0C25002D064623DBA9423F
:1005BC0021D8264F01F072F93A6822B3144603E0B1
:1005CC0063682246FBB11C4623685B1BF8D40B2BDB
:1005DC0015D8636894420CBF3B605360304601F001
:1005EC005FF904F10B00231D20F00700C21A01D0A3
:1005FC001B1AA350F8BD0C2300203360F8BD2360F8
:10060C001C442560EAE77968D1B12946304600F0F0
:10061C009BFB431C01460CD0C41C24F00304A042D9
:10062C0005D03046611A00F08FFB013001D02560F7
:10063C00D4E70C233046336001F032F90020F8BDCA
:10064C00304600F081FB7860DFE700BF8C000020B3
:10065C009368013B002B936005DAD2F818C0634510
:10066C0007DB0A2905D01368581C1060084619705E
:10067C00704700F0C3BB00BF9BB1F8B513440646EE
:10068C000F46541E5D1E01E0AC4208D03A4630467F
:10069C0014F8011FFFF7DCFF431CF5D1F8BD002057
:1006AC00F8BD0020704700BF936810B5144613B90D
:1006BC001846536010BD00F09BFD0023C4E90133C4
:1006CC0010BD00BF2DE9F04F0E4692461C46074662
:1006DC009FB018B18369002B00F0A880954B9E4207
:1006EC0000F0AA80944B9E4200F0B580934B9E4242
:1006FC0008BFFE68B389180740F1A3803369002B4B
:10070C0000F09F80002320220B9330239AF80010D6
:10071C00059401258A4C8DF831208DF83230002952
:10072C007DD0D1460B4604E019F8013F002B00F0B8
:10073C009480252BF8D1B9EB0A0B40F0918099F8F5
:10074C000030002B6BD000234FF0FF3209F1010970
:10075C00CDE90723069309938DF85B301C9304E0D5
:10076C00001B05FA00F018430690CA4605222046E5
:10077C0019F8011B00F058FF069B0028F0D1D90690
:10078C0044BF20228DF85B201A0748BF2B229AF811
:10079C00001048BF8DF85B202A2972D1059A116888
:1007AC00043200290592C0F2A08009919AF8011038
:1007BC000AF1010A2E2976D0DFF8889103224846E7
:1007CC0000F032FF48B14022069BA0EB090002FA70
:1007DC0000F003430AF1010A06931AF8011B0622E2
:1007EC0059488DF8301000F01FFF002800F083806E
:1007FC00564B002B6CD005A9009132463846544B11
:10080C0006A9AFF300800390039B013307D00B9B29
:10081C00039A9AF8001013440B93002981D1B389E1
:10082C005B0615D40B981FB0BDE8F08FFFF750FE98
:10083C00404B9E427FF456AF7E68B38918073FF554
:10084C005DAF3146384600F051FB00283FF45AAFFB
:10085C004FF0FF30E7E7BE684CE7B9EB0A0BDED090
:10086C00D046CAF1010A03E0934538D918F8011FA4
:10087C0032463846FFF7ECFE01300AEB0802F3D1A2
:10088C00CDE7A1F13002092A94D8099B1AF8011F6F
:10089C0003EB830302EB4303A1F13002092AF5D9E0
:1008AC002E29099388D19AF801102A292DD1059B5C
:1008BC000AF102001A680433002A0593B8BF4FF0FE
:1008CC00FF339AF8021007928246B8BF079373E77A
:1008DC00059B073323F007030833059397E70B9A1F
:1008EC0099F800305A440B922BE7494243F002032B
:1008FC00099106935AE705A9009132463846144BE4
:10090C0006A900F0CBF803907EE70023A1F130029A
:10091C00092A0AF1010A07933FF64EAF1AF8011F94
:10092C0003EB830302EB4303A1F13002092AF5D94F
:10093C00079341E7E43F0008C43F0008A43F0008C8
:10094C004C400008544000085840000800000000CB
:10095C00850600088C4600B586461346034A714648
:10096C0010685DF804EB6246FFF7ACBE0000002097
:10097C002DE9F04791461E460A698B680C469A424F
:10098C00B8BF1A46C9F8002091F843300546DDF887
:10099C00208013B10132C9F80020226891065DD580
:1009AC00D9F800300233C9F80030226812F0060F73
:1009BC0011461ED1E168CB1A002BD8BF114618DDA9
:1009CC00002704F1190A06E0D9F80030E268A2EB1E
:1009DC00030CBC450CDD0123524631462846C0476A
:1009EC00013007F10107EFD14FF0FF30BDE8F08780
:1009FC00216894F84330003B18BF01238A060AD5BE
:100A0C003021E21882F8431094F845105A1C224405
:100A1C00023382F843103146284604F14302C047A2
:100A2C000130E1D0236803F00603042B1DD0A3682A
:100A3C002269934225DD00279B1A1F4404F11A09F1
:100A4C00002401E0BC421CDA01234A463146284608
:100A5C00C047013004F10104F4D1C5E712F0060FD0
:100A6C0012D0003B18BF0123D5E7D9F80030E1685C
:100A7C002269C91AA36821EAE1779342DCDC0029D8
:100A8C00DCDC0020BDE8F087E168D9F80030CB1A37
:100A9C00002BD8BF114693DCABE700BF2DE9F04328
:100AAC0017460A7E85B00C46064698460C9D01F109
:100ABC00430C002A33D0A2F15803D9B2202967D8AD
:100ACC00202B65D8DFE813F0DD00640064006400BF
:100ADC006400640064006400640064006400A300AB
:100AEC006E0064006400640064006E0064006400C6
:100AFC006400640021007F00BF0064006400AE004D
:100B0C0064007F0064006400E40023681A0640F16E
:100B1C0002812B686269191D29601B681A60002309
:100B2C00E14623613B4621463046CDF8008003AABE
:100B3C00FFF71EFF013020D04A4639463046236964
:100B4C00C047013019D02368E0689B07039919D579
:100B5C00431A002B16DD002504F1190904E0E068A6
:100B6C000399431AAB420DDD01234A463946304600
:100B7C00C047013005F10105F1D14FF0FF3005B050
:100B8C00BDE8F0838842B8BF084605B0BDE8F083E5
:100B9C00012384F8422004F142092361002384F8E4
:100BAC004330BFE72368190602D45A0600F1BF8010
:100BBC0029680A68043129601146002A6ADB0A2573
:100BCC00DFF87CE110E02368180640F19A802B686E
:100BDC00191D296019686F2A0CBF08250A25DFF832
:100BEC0060E1002384F843306268002AA2607DDB58
:100BFC00236823F004032360002959D1002A77D1FC
:100C0C00E146082D63D0ACEB090323618AE701228E
:100C1C002B6804F14209196804332B6084F84210E4
:100C2C002261BBE72B6800211A1D2A60D3F80090C3
:100C3C006268484600F0F8FC00287FD0A0EB090061
:100C4C0060602061AAE7236843F0200323607822C8
:100C5C00DFF8F0E084F845202A68111D2960190698
:100C6C0042D45D0640D51188D80744BF43F0200319
:100C7C002360002943D12368102523F0200323602F
:100C8C00AFE75823DFF8B8E084F845302368E3E792
:100C9C002368DCE72D2284F8432062684942002A4D
:100CAC00A26002DB23F0040323600A25DFF890E046
:100CBC00E146B1FBF5F30A4605FB131019461EF885
:100CCC000030AA4209F8013DF3D2082D9BD12368CC
:100CDC00D90798D5626823699A4294DC302309F1CC
:100CEC00FF3989F800308EE71168BDE70029DFD1A4
:100CFC009EF8003004F1420984F8423081E7102557
:100D0C006FE713F0400F2B6803F1040129600CBF4F
:100D1C00196819885FE713F0400F2B68626903F1BB
:100D2C00040129601B6814BF1A801A60F7E62A6850
:100D3C00B2F9001004322A600A463EE7606880E788
:100D4C006040000874400008002238B5064D044687
:100D5C0008462A6002F0CCF8431C00D038BD2B6842
:100D6C00002BFBD0236038BD9400002010B50C463E
:100D7C00B1F90E1000F024FE002803DB636D034470
:100D8C00636510BDA38923F48053A38110BD00BFFC
:100D9C00002070472DE9F0410C46B1F90C101F46AC
:100DAC00CB05054616460BD421F48051A1813B4658
:100DBC0032462846B4F90E10BDE8F04100F080B878
:100DCC00B4F90E100223002200F08AFBB4F90C10C7
:100DDC00EAE700BF10B50C46B1F90E1000F080FB2D
:100DEC00A389421C0EBF23F4805343F480536065E7
:100DFC00A38110BDB1F90E1000F0FAB8F8B5064693
:100E0C000D46144608B1836943B3254B9C422AD046
:100E1C00244B9C4229D0244B9C4208BFF468A26905
:100E2C00A389A2601A0722D5236903B322686169DA
:100E3C00D31AEDB299422F4629DD0133A16801394D
:100E4C00A160511C2160157062699A4216D0A38969
:100E5C00DB0701D50A2D11D03846F8BDFFF738FB5A
:100E6C000F4B9C42D4D17468D9E7B468D7E72146BC
:100E7C00304600F03BF838B92369D7E721463046B5
:100E8C0000F04CF90028E7D04FF0FF37E4E721469B
:100E9C00304600F043F90028F6D101232268CDE753
:100EAC00E43F0008C43F0008A43F000803460A467C
:100EBC00024908681946FFF7A1BF00BF00000020D7
:100ECC0038B50C46114600228446074D20462A6050
:100EDC001A46644602F040F8431C00D038BD2B681B
:100EEC00002BFBD0236038BD940000203C4B70B528
:100EFC001D6806460C460DB1AB69E3B1394B9C42FB
:100F0C001FD0394B9C424DD0384B9C4208BFEC68EB
:100F1C00B4F90C3018079AB219D5216911B312F033
:100F2C0001002FD000256069A5604042A061002916
:100F3C002ED0002070BD2846FFF7CAFA294B9C42E0
:100F4C00DFD16C68B4F90C3018079AB2E5D4D1062D
:100F5C003ED5520728D4216943F00803A3819AB2E5
:100F6C000029DCD102F42070B0F5007FD7D02146E7
:100F7C00304600F0CBFAB4F90C3021699AB212F079
:100F8C000100CFD1950758BF6069A0600029D0D16E
:100F9C00120658BF0846CDD543F040034FF0FF3042
:100FAC00A38170BDAC68B3E7616B51B104F144022D
:100FBC00914204D0304600F075FCB4F90C3000229C
:100FCC0062630022216923F02403C4E90012C3E701
:100FDC00092243F0400332604FF0FF30A38170BD13
:100FEC0000000020E43F0008C43F0008A43F0008B4
:100FFC00002238B5064D044608462A6001F0BAFFB7
:10100C00431C00D038BD2B68002BFBD0236038BDAF
:10101C0094000020F8B58B890C46190707463BD481
:10102C006268002A55DDE66A002E50D000223D6829
:10103C003A6013F4805250D101233846216AB047EC
:10104C00421C5CD0A389E66A5B0705D56368C01AAD
:10105C00636B0BB1236CC01A0246216A002338461D
:10106C00B047411C3BD13B68002B38D01D2B01D025
:10107C00162B4BD100232269C4E90023616B3D6020
:10108C0029B304F14403994202D0384600F00AFC1B
:10109C00002318466363F8BD2669C6B19A0718BFCA
:1010AC000023256808BF63692660AD1BA3600CE0B4
:1010BC002B463246D4F828C03846216AE047B0F1B6
:1010CC00000CA5EB0C05664412DD002DF0DC0020B5
:1010DC00F8BD226C002AA6DCF9E7606DB4E70022AB
:1010EC00236962602360A389DB04C7D56065C5E70B
:1010FC00A3894FF0FF3043F04003A381F8BD3B6858
:10110C00002B9FD01D2B06D0162B04D0A38943F0A7
:10111C004003A381F8BD00203D60F8BD38B50B69D4
:10112C00BBB10C46054608B18369B3B10D4B9C426B
:10113C0011D00D4B9C4213D00C4B9C4208BFEC6859
:10114C00B4F90C302BB121462846BDE83840FFF7E6
:10115C0061BF002038BD6C68F2E7FFF7B9F9E5E72D
:10116C00AC68EDE7E43F0008C43F0008A43F00086A
:10117C0038B540B303690446E3B1174B1D680DB194
:10118C00AB69CBB1154B9C420FD0154B9C4221D077
:10119C00144B9C4208BFEC68B4F90C3053B1214697
:1011AC002846BDE83840FFF735BF6C68B4F90C3001
:1011BC00002BF4D1002038BD2846FFF789F9074BE6
:1011CC009C42E2D1F1E7084B08491868BDE8384069
:1011DC00FFF7BEB9AC68DFE700000020E43F000871
:1011EC00C43F0008A43F0008A03F000829110008D4
:1011FC009368002B00F0B7802DE9F04FB1F90C305B
:10120C000C4619078046174683B098B225D523693A
:10121C001BB310F002033D682DD04FF0000B5E465F
:10122C00DFF8B8A2002E00F08B80564533465A46A4
:10123C0028BF53464046216AD4F828C0E04700280E
:10124C0040F38780BB6883441B1A361ABB60002BA3
:10125C00E8D1002003B0BDE8F08F21464046FFF7EF
:10126C0045FE002840F03681B4F90C303D6898B248
:10127C0010F00203D1D110F0010976D14E46002EA8
:10128C005AD08205D4F808B040F1B580B3455A461F
:10129C0000F2CD8010F4906F00F0CB8023682169B0
:1012AC00A3EB010B636903EB430A0AEBDA7A0BF14C
:1012BC0001034FEA6A0A33445345524684BF9A46A7
:1012CC005246430540F1EA8011464046FFF764F967
:1012DC00002800F0F9805A462169019000F0ECF9E1
:1012EC00A289019B22F4906242F08002A28103EB5E
:1012FC000B0023613246AAEB0B03B346C4F814A0CF
:10130C00A3602060B24600264946019200F04AFADA
:10131C00A3682168019AA3EB0B030A44A360226023
:10132C00B868D144A0EB0A00B860002891D0B4F999
:10133C000C0080B2002EA4D1D5E9009608359EE7AA
:10134C00D5E900B608356DE721464046FFF7E6FEC5
:10135C0080B3B4F90C304FF0FF3043F04003A3815D
:10136C0003B0BDE8F08F002070471E46AA46994690
:10137C0018461D4656B3002832D04A4620682169CB
:10138C00B24228BF32468842636904D9A16803EB94
:10139C00010B5A4574DC934265DC2A464046216AAF
:1013AC00D4F828C0E047B0F1000BD2DDB9EB0B0943
:1013BC00CAD00120BB685D44A3EB0B03A6EB0B0664
:1013CC00BB60002B3FF445AF002ED4D10AF10803CB
:1013DC0053F8046C9A4653F8085C0833002EF7D087
:1013EC0032460A21284600F01FF9002869D0013046
:1013FC00A0EB0509C1E72068236998421BD86369F3
:10140C00B34218D86FF0004CB44528BFB4469CFBCF
:10141C00F3FC4A4603FB0CF34046216AD4F828C07F
:10142C00E047B0F1000A94DDA6EB0A0678E7B34674
:10143C003246206866E7B345DA4628BFB2464946CD
:10144C00524600F0AFF9A3682268A3EB0A0352449A
:10145C00A3602260002BE7D121464046FFF75EFED9
:10146C000028E1D075E729469346019200F09AF9DD
:10147C00A368019A9B1AA36023681A44226095E71B
:10148C0029465A4600F08EF9236821465B444046B3
:10149C002360FFF743FE002888D05AE7404600F04F
:1014AC0067FA034600287FF422AF4046216900F01A
:1014BC00F9F90C22B4F90C30C8F8002023F08003A1
:1014CC0049E7721C914659E70C22B4F90C30C8F864
:1014DC00002040E74FF0FF30BCE600BF00FCFF7F70
:1014EC0038B50C46114600228446074D20462A602A
:1014FC001A46644601F048FD431C00D038BD2B68E9
:10150C00002BFBD0236038BD94000020F0B58B89F4
:10151C000C46990797B007D5012204F14703C4E99B
:10152C000432236017B0F0BDB4F90E100546002943
:10153C002DDB6A4600F05AFA002827DB019E4FF497
:10154C00806706F47046A6F50056B6FA86F639465C
:10155C0028467609FFF720F830B3A3891A4A43F0DE
:10156C008003AA62C4E90407A3812060002ED9D0AD
:10157C002846B4F90E1000F04DFA0028D2D0A389F9
:10158C0023F0030343F00103A381CBE7A38913F0FA
:10159C00800F14BF40274FF4806728463946002639
:1015AC00FEF7FAFF0028D8D1B4F90C309A05B9D45B
:1015BC00012123F0030304F1470243F00203C4E9C1
:1015CC000421A3812260ADE7F102000870B50C463E
:1015DC00B1F90E10164600291D4696B013DB6A466B
:1015EC0000F004FA00280EDB01994FF4806301F43B
:1015FC007041A1F50051B1FA81F10020490929602F
:10160C00336016B070BD0022B4F90C302A601B0692
:10161C0004D540230020336016B070BD4FF48063B6
:10162C000020336016B070BD5FFA81FC810710D0CA
:10163C000346511E2AB90AE09A0718460AD0013906
:10164C0005D3184613F8012B6245F5D170470020DD
:10165C007047114603290CD80029F8D003460144E1
:10166C0001E08B42F3D0184613F8012B6245F8D1F8
:10167C00ECE7024610B54CEA0C2444EA044410464C
:10168C00036804326340A3F1013E2EEA030313F016
:10169C00803F04D1043903291046F0D851B10346D8
:1016AC00014401E08B4205D0184613F8012B62452A
:1016BC00F8D110BD002010BD844641EA000313F0A0
:1016CC00030349D1403A23D30B6803604B68436052
:1016DC008B688360CB68C3600B6903614B694361A2
:1016EC008B698361CB69C3610B6A03624B6A43628A
:1016FC008B6A8362CB6AC3620B6B03634B6B436372
:10170C008B6B8363CB6BC36340304031403ADBD28D
:10171C0030320BD30B6803604B6843608B6883607B
:10172C00CB68C36010301031103AF3D20C3205D3B1
:10173C0051F8043B40F8043B043AF9D2043208D087
:10174C00D2071CBF11F8013B00F8013B01D30B88F9
:10175C0003806046704700BF082A13D38B07B1D0B3
:10176C0010F00303AED0C3F10403D21ADB071CBF85
:10177C0011F8013B00F8013BA4D331F8023B20F8EF
:10178C00023B9FE7043AD9D3013A11F8013B00F828
:10179C00013BF9D20B7803704B7843708B788370D4
:1017AC006046704788420DD98B1883420AD900EBEA
:1017BC00020CBAB1624613F801CD994202F801CD80
:1017CC00F9D170470F2A0ED8034602F1FF3C4AB1FB
:1017DC000CF1010C013B8C4411F8012B614503F811
:1017EC00012FF9D1704740EA01039B074FD1A2F1B9
:1017FC00100370B501F1200C23F00F0501F1100E50
:10180C0000F11004AC441B095EF8105C0EF1100ED4
:10181C0044F8105C5EF81C5C103444F81C5C5EF8F8
:10182C00185C44F8185C5EF8145CE64544F8145CEB
:10183C00EAD1013312F00C0F01EB031102F00F048B
:10184C0000EB031327D08E46043C24F003064FEA2A
:10185C00940C1E441C1F5EF8045B44F8045FB442F5
:10186C00F9D10CF1010402F0030203EB840301EB48
:10187C00840102F1FF3C4AB10CF1010C013B8C4498
:10188C0011F8012B614503F8012FF9D170BD034606
:10189C0002F1FF3C9CE72246EBE700BF704700BF1C
:1018AC00704700BF002952D038B551F8043C0C1FCA
:1018BC00002BB8BFE4180546FFF7F0FF2B4A13685E
:1018CC00002B45D0A3420CD921686018834228D044
:1018DC00636028461460BDE83840FFF7E1BFA342BF
:1018EC000FD81A465B68002BF9D111685018844246
:1018FC001DD034D3636054602846BDE83840FFF7F0
:10190C00CFBF11685018A04215D028D82168601894
:10191C008342EFD118685B680144C4E9001354603A
:10192C00EAE718685B680144C4E90013D1E723684F
:10193C0019441160E0E7206801445018834211609B
:10194C00DAD1D3E900030144C2E90013D4E77047AC
:10195C00284663601460BDE83840FFF7A1BF0C2334
:10196C0028462B60BDE83840FFF79ABF8C0000205A
:10197C00F8B51446F9B1CAB106460D4600F05CF84C
:10198C00A04202D32F463846F8BD21463046FEF71A
:10199C0003FE07460028F6D022462946FFF78CFEA8
:1019AC0030462946FFF77EFF3846F8BD2746FFF73D
:1019BC0079FF3846F8BD1146BDE8F840FEF7ECBD9E
:1019CC0038B50C46114600228446074D20462A6045
:1019DC001A46644601F0B0FA431C00D038BD2B689F
:1019EC00002BFBD0236038BD9400002070B500267E
:1019FC00074D0446084611462E6001F0BEFA431C02
:101A0C0000D070BD2B68002BFBD0236070BD00BFD5
:101A1C0094000020002238B5064D044608462A6082
:101A2C0001F0B0FA431C00D038BD2B68002BFBD062
:101A3C00236038BD9400002051F8040C0028A0F15C
:101A4C000400BCBF0B58C018704700BF4FF0FF0C10
:101A5C001CEAD0521EBF1CEAD15392EA0C0F93EA37
:101A6C000C0F6FD01A4480EA010C400218BF5FEAD9
:101A7C0041211ED04FF0006343EA501043EA51114C
:101A8C00A0FB01310CF00040B1F5000F3EBF490046
:101A9C0041EAD3715B0040EA010062F17F02FD2A4A
:101AAC001DD8B3F1004F40EBC25008BF20F001002D
:101ABC00704790F0000F0CF0004C08BF49024CEA44
:101ACC00502040EA51207F3AC2BFD2F1FF0340EAD6
:101ADC00C250704740F400004FF00003013A5DDC47
:101AEC0012F1190FDCBF00F000407047C2F1000288
:101AFC00410021FA02F1C2F1200200FA02FC5FEA75
:101B0C00310040F1000053EA4C0308BF20EADC70BE
:101B1C00704792F0000F00F0004C02BF400010F430
:101B2C00000F013AF9D040EA0C0093F0000F01F0DD
:101B3C00004C02BF490011F4000F013BF9D041EAFF
:101B4C000C018FE70CEAD15392EA0C0F18BF93EA01
:101B5C000C0F0AD030F0004C18BF31F0004CD8D12B
:101B6C0080EA010000F00040704790F0000F17BFB2
:101B7C0090F0004F084691F0000F91F0004F14D0F8
:101B8C0092EA0C0F01D142020FD193EA0C0F03D150
:101B9C004B0218BF084608D180EA010000F0004053
:101BAC0040F0FE4040F40000704740F0FE4040F42E
:101BBC004000704780F0004002E000BF81F000411F
:101BCC0042001FBF5FEA410392EA030F7FEA226CD7
:101BDC007FEA236C6AD04FEA1262D2EB1363C1BF67
:101BEC00D218414048404140B8BF5B42192B88BFD6
:101BFC00704710F0004F40F4000020F07F4018BFF9
:101C0C00404211F0004F41F4000121F07F4118BF18
:101C1C00494292EA030F3FD0A2F1010241FA03FCC0
:101C2C0010EB0C00C3F1200301FA03F100F00043A8
:101C3C0002D5494260EB4000B0F5000F13D3B0F170
:101C4C00807F06D340084FEA310102F10102FE2ADF
:101C5C0051D2B1F1004F40EBC25008BF20F001004F
:101C6C0040EA03007047490040EB0000013A28BFEE
:101C7C00B0F5000FEDD2B0FA80FCACF1080CB2EB71
:101C8C000C0200FA0CF0AABF00EBC25052421843EF
:101C9C00BCBFD0401843704792F0000F81F4000194
:101CAC0006BF80F400000132013BB5E74FEA410367
:101CBC007FEA226C18BF7FEA236C21D092EA030FD3
:101CCC0004D092F0000F08BF0846704790EA010F4D
:101CDC001CBF0020704712F07F4F04D1400028BF7A
:101CEC0040F00040704712F100723CBF00F500005C
:101CFC00704700F0004343F0FE4040F40000704792
:101D0C007FEA226216BF08467FEA2363014642023D
:101D1C0006BF5FEA412390EA010F40F48000704750
:101D2C004FF0000304E000BF10F0004348BF4042F6
:101D3C005FEA000C08BF704743F0964301464FF032
:101D4C0000001CE050EA010208BF70474FF000038E
:101D5C000AE000BF50EA010208BF704711F00043CF
:101D6C0002D5404261EB41015FEA010C02BF84469F
:101D7C000146002043F0B64308BFA3F18053A3F5FE
:101D8C000003BCFA8CF2083AA3EBC25310DB01FA45
:101D9C0002FC634400FA02FCC2F12002BCF1004FC9
:101DAC0020FA02F243EB020008BF20F0010070475A
:101DBC0002F1200201FA02FCC2F1200250EA4C00AE
:101DCC0021FA02F243EB020008BF20EADC707047F4
:101DDC004FEA4002B2F1FE4F0FD34FF09E03B3EB2C
:101DEC0012620DD94FEA002343F0004310F0004F6C
:101DFC0023FA02F018BF404270474FF000007047C2
:101E0C0012F1610F01D1420205D110F0004008BF60
:101E1C006FF0004070474FF00000704700B583B082
:101E2C0001904FF6FF73012201A9034801F036FD22
:101E3C00019803B05DF804FB18110020014B01223E
:101E4C001A7070479810002072B6FEE700B595B076
:101E5C00282200210DEB0200FEF7C0F900230593A8
:101E6C0006930793089309930193029303930493A6
:101E7C0001220A924FF480330B930E92022211929C
:101E8C0012934FF4E01313930AA800F00BF9C8B99E
:101E9C000F23059302210691002307934FF48062D0
:101EAC000892099305A800F02FFB68B9022301934F
:101EBC004FF40043039301A800F002FC30B915B0B5
:101ECC005DF804FBFFF7C0FFFFF7BEFFFFF7BCFF99
:101EDC0010B500F0ADF8FFF7B9FF01F00DFF01F000
:101EEC00AFFF01F02BFF01F0C5FF164C204601F0AF
:101EFC0039FB4FF480621449204601F0EBF919E0EC
:101F0C00114B53F824304FF47A7003FB00F0FFF7B9
:101F1C0007FF0E49FFF79AFD4FF06651FFF796FD4C
:101F2C00FFF756FF01460A48FEF7C0F90134B4F535
:101F3C00806FE5D3074B1B78002BFBD00024054B9F
:101F4C001C70F4E7E8100020980000203333534055
:101F5C000440000898100020FEE7FEE7FEE7FEE7CD
:101F6C00FEE770477047704708B500F073F808BD7E
:101F7C0008B5024800F0A0FE08BD00BFA410002068
:101F8C0008B5024801F032F808BD00BFE810002087
:101F9C0008B5024801F06EFD08BD00BF1811002005
:101FAC0082B00E4B9A6942F001029A619A6902F072
:101FBC0001020092009ADA6942F08052DA61DB6920
:101FCC0003F080530193019B054A536823F0E063AF
:101FDC0043F08063536002B0704700BF00100240B2
:101FEC000000014010B504460E4B1A784FF47A737A
:101FFC00B3FBF2F30C4A1068B0FBF3F000F062FF95
:10200C0068B90F2C01D901200AE0002221464FF0BB
:10201C00FF3000F039FF054B1C60002000E0012070
:10202C0010BD00BF640000206C0000206800002080
:10203C0008B5074A136843F010031360032000F03F
:10204C0011FF0F20FFF7CEFFFFF7AAFF002008BDFE
:10205C0000200240034A1168034B1B780B441360A9
:10206C00704700BF9C10002064000020014B1868D2
:10207C00704700BF9C10002082B0084B1B68084AB8
:10208C00A2FB03235B0A00FB03F3019300BF019B3C
:10209C005A1E0192002BF9D102B070476C0000203F
:1020AC00D34D6210002800F0F18170B582B0044667
:1020BC00036813F0010F2CD0994B5B6803F00C03F1
:1020CC00042B1DD0964B5B6803F00C03082B12D02D
:1020DC006368B3F5803F41D0002B55D103F18043A9
:1020EC0003F504331A6822F480321A601A6822F459
:1020FC0080221A6037E08A4B5B6813F4803FE7D08C
:10210C00874B1B6813F4003F03D06368002B00F06F
:10211C00BF81236813F0020F75D0814B5B6813F0FD
:10212C000C0F5FD07E4B5B6803F00C03082B54D074
:10213C002369002B00F08A807A4B01221A60FFF78A
:10214C0095FF0546764B1B6813F0020F75D1FFF710
:10215C008DFF401B0228F5D903209EE1704A1368BD
:10216C0043F480331360636843B3FFF77FFF054686
:10217C006B4B1B6813F4003FCBD1FFF777FF401B71
:10218C006428F5D9032088E1B3F5A02F09D0644B5E
:10219C001A6822F480321A601A6822F480221A60BB
:1021AC00E1E703F18043A3F53C331A6842F4802243
:1021BC001A601A6842F480321A60D4E7FFF756FFAF
:1021CC000546574B1B6813F4003FA2D0FFF74EFF98
:1021DC00401B6428F5D903205FE1514B5B6813F475
:1021EC00803FA5D14E4B1B6813F0020F03D023691F
:1021FC00012B40F04F814A4A136823F0F8036169C0
:10220C0043EAC1031360236813F0080F33D0A369AA
:10221C00002B5CD0434B0122C3F88024FFF726FF30
:10222C0005463F4B5B6A13F0020F21D1FFF71EFFEF
:10223C00401B0228F5D903202FE1394A136823F0FB
:10224C00F803616943EAC1031360DCE7354B0022F4
:10225C001A60FFF70BFF0546314B1B6813F0020F9A
:10226C00D1D0FFF703FF401B0228F5D9032014E15E
:10227C000120FFF701FF236813F0040F00F0968094
:10228C00274BDB6913F0805F34D1254BDA6942F0C0
:10229C008052DA61DB6903F080530193019B0125C5
:1022AC00214B1B6813F4807F26D0E368012B3DD0B3
:1022BC00002B53D103F1804303F504331A6A22F047
:1022CC0001021A621A6A22F004021A6233E0154BF8
:1022DC000022C3F88024FFF7C9FE0546104B5B6A49
:1022EC0013F0020FC7D0FFF7C1FE401B0228F5D92F
:1022FC000320D2E00025D3E70B4A136843F4807324
:10230C001360FFF7B3FE0646074B1B6813F4807F80
:10231C00CBD1FFF7ABFE801B6428F5D90320BCE0C2
:10232C000010024000004242007000405F4A136AF5
:10233C0043F001031362E36833B3FFF797FE0646DD
:10234C005A4B1B6A13F0020F2FD1FFF78FFE801B25
:10235C0041F288339842F3D903209EE0052B09D033
:10236C00524B1A6A22F001021A621A6A22F0040213
:10237C001A62E0E74D4B1A6A42F004021A621A6ABA
:10238C0042F001021A62D6E7FFF770FE0646474B91
:10239C001B6A13F0020F08D0FFF768FE801B41F296
:1023AC0088339842F3D9032077E0E5B9E369002B31
:1023BC0072D03E4A526802F00C02082A56D0022B08
:1023CC0017D03B4B00221A66FFF750FE0446374BE2
:1023DC001B6813F0007F47D0FFF748FE001B022854
:1023EC00F5D9032059E0314AD36923F08053D361E6
:1023FC00DCE72F4B00221A66FFF738FE05462B4B05
:10240C001B6813F0007F06D0FFF730FE401B02283C
:10241C00F5D9032041E0236AB3F5803F1AD0234954
:10242C004B6823F47413226A606A024313434B60B3
:10243C001F4B01221A66FFF719FE04461B4B1B6843
:10244C0013F0007F0ED1FFF711FE001B0228F5D907
:10245C00032022E0154A536823F40033A1680B4390
:10246C005360DCE7002018E0002016E0012B16D0AA
:10247C000E4B5B6803F48031226A914211D103F454
:10248C007013626A93420ED1002006E0012070475F
:10249C00012002E0012000E0002002B070BD01200C
:1024AC00FBE70120F9E70120F7E700BF001002402D
:1024BC00000042420F4B5B6803F00C02082A01D06B
:1024CC000D487047C3F383420C49885C13F4803F7A
:1024DC000BD0084B5B68C3F34043094AD35C064AF4
:1024EC0002FB00F0B0FBF3F07047064B03FB00F06F
:1024FC00704700BF0010024000127A001040000824
:10250C000C40000800093D00002800F0A08070B5C8
:10251C000D460446524B1B6803F007038B420BD24B
:10252C004F4A136823F007030B431360136803F03F
:10253C0007038B4240F08D80236813F0020F17D0F5
:10254C0013F0040F04D0474A536843F4E06353601C
:10255C00236813F0080F04D0424A536843F46053C5
:10256C005360404A536823F0F003A1680B43536057
:10257C00236813F0010F31D06368012B20D0022B9C
:10258C0025D0384A126812F0020F64D035494A68D7
:10259C0022F0030213434B60FFF768FD0646314BF4
:1025AC005B6803F00C036268B3EB820F16D0FFF785
:1025BC005DFD801B41F288339842F0D9032045E041
:1025CC00284A126812F4003FE0D101203EE0254A6F
:1025DC00126812F0007FD9D1012037E0204B1B6824
:1025EC0003F00703AB420AD91D4A136823F0070313
:1025FC002B431360136803F00703AB422DD1236800
:10260C0013F0040F06D0174A536823F4E063E16813
:10261C000B435360236813F0080F07D0114A53681B
:10262C0023F46053216943EAC1035360FFF742FF6F
:10263C000C4B5B68C3F303130B4AD35CD8400B4BB6
:10264C0018600B4B1868FFF7CDFC002070BD012003
:10265C0070470120FAE70120F8E70120F6E700BFF8
:10266C0000200240001002403C4000086C0000209A
:10267C0068000020014B1868704700BF6C000020F8
:10268C0008B5FFF7F7FF044B5B68C3F30223034A5B
:10269C00D35CD84008BD00BF001002403440000895
:1026AC0008B5FFF7E7FF044B5B68C3F3C223034A8B
:1026BC00D35CD84008BD00BF001002403440000875
:1026CC0070B582B00446036813F0010F36D03F4B4F
:1026DC00DB6913F0805F49D13C4BDA6942F08052E0
:1026EC00DA61DB6903F080530193019B0125384BC0
:1026FC001B6813F4807F3BD0344B1B6A13F440737C
:10270C0013D0626802F440729A420ED02F4A136AB8
:10271C0023F440702F490126C1F840640026C1F80B
:10272C004064106213F0010F36D1284A136A23F467
:10273C00407361680B431362002D3ED1236813F084
:10274C00020F06D0214A536823F44043A1680B437F
:10275C005360236813F0100F34D01C4A536823F4D1
:10276C008003E1680B43536000202CE00025BEE79A
:10277C00174A136843F480731360FFF777FC06461F
:10278C00134B1B6813F4807FB6D1FFF76FFC801BD3
:10279C006428F5D9032016E0FFF768FC06460B4BBE
:1027AC001B6A13F0020FC0D1FFF760FC801B41F2D3
:1027BC0088339842F3D9032005E0D36923F0805382
:1027CC00D361BBE7002002B070BD00BF0010024017
:1027DC00007000400000424208B502284ED010287C
:1027EC0003D0012828D0002008BD2B4B5A6818684C
:1027FC0010F08070F8D0C2F383432849C85C12F4FF
:10280C00803F15D0244B5B68C3F34043244AD25C11
:10281C00244BB3FBF2F303FB00F01F4B5B6813F488
:10282C00800FE1D14000204BA3FB00304008DBE7D8
:10283C001E4B03FB00F0F0E7174B1B6A40F2023211
:10284C001A40B2F5817F24D003F44073B3F5007FB6
:10285C0004D0B3F5407F09D00020C5E70E4A526A78
:10286C0012F0020FF5D049F64040BDE70A4B18684C
:10287C0010F40030B8D04FF22440B5E7FFF710FF4A
:10288C00054B5B68C3F3813301335B00B0FBF3F0A2
:10289C00AAE74FF40040A7E70010024024400008CC
:1028AC002040000800127A00ABAAAAAA00093D0039
:1028BC0070B582B00024A446A2E07E4DAB4210D08D
:1028CC0007D97D4DAB420CD005F58035AB4208D015
:1028DC0013E0A5F58015AB4203D005F57025AB428E
:1028EC0007D18B68002B55D0012B4ED042610824A8
:1028FC0003E0A5F58015AB42F3D0BEF1FF0F4BD82A
:10290C0006464FEA8C0233680F25954023EA0503EF
:10291C0004FA02F2134333604B6813F0805F6DD0FE
:10292C00664B9A6942F001029A619B6903F00103BC
:10293C000193019B4FEA9C02951C614B53F8256057
:10294C000CF00305AD000F23AB4026EA03065D4BEC
:10295C00984228D003F58063984200F08D8003F5EF
:10296C008063984200F08A8003F58063984218D007
:10297C00042319E0CC68C0E7CC680434BDE7CC680C
:10298C000834BAE7CC680C34B7E702610824B4E722
:10299C000024B2E70424B0E7061DACF10802920053
:1029AC00B1E7032300E00023AB4033430232444D34
:1029BC0045F822304B6813F4801F61D0424A93686B
:1029CC0043EA0E0393604B6813F4001F5ED03E4A3B
:1029DC00D36843EA0E03D3604B6813F4003F5BD01B
:1029EC00394A536843EA0E0353604B6813F4803F33
:1029FC0058D0354A136843EA0E0313600CF1010CEE
:102A0C000B6833FA0CF253D0012202FA0CF203EAEF
:102A1C00020E32EA0303F1D14B68122B3FF64DAF95
:102A2C00122B3FF66AAF01A555F823F0EF280008EA
:102A3C00812900088B2900089D2900080729000816
:102A4C00072900080729000807290008072900089A
:102A5C00072900080729000807290008072900088A
:102A6C00072900080729000807290008072900087A
:102A7C008529000891290008012395E7022393E793
:102A8C00114A936823EA0E0393609CE70E4AD368BD
:102A9C0023EA0E03D3609FE70B4A536823EA0E0325
:102AAC005360A2E7084A136823EA0E031360A5E7F4
:102ABC0002B070BD00002210000031100010024066
:102ACC0000000140000801400004014030B4012422
:102ADC00056CAC40C56B6C60046863604368102B7C
:102AEC0005D0036899600368DA6030BC70470368EE
:102AFC009A600368D960F8E760B310B402460168C5
:102B0C00154B0B441548A0FB03031B099B001364D6
:102B1C00134BD363022382F82130086820F47F50D2
:102B2C0020F03000536894682343D468234314691D
:102B3C0023435469234394692343D46923430343B4
:102B4C000B6000209063012382F8213082F8200072
:102B5C0010BC704701207047F8FFFDBFCDCCCCCC2A
:102B6C000000024038B5044690F82000012832D00D
:102B7C00012084F8200094F82100C0B2012804D070
:102B8C00002384F82030022038BD022084F8210074
:102B9C000020A0632568286820F0010028602046EA
:102BAC00FFF794FFE36A5BB12268136843F00E03EE
:102BBC0013602268136843F0010313600020E3E7FD
:102BCC002268136823F0040313602268136843F02F
:102BDC000A031360EDE70220D6E7034690F82120A4
:102BEC00D2B2022A06D004228263002280F820206E
:102BFC000120704701680A6822F00E020A60016821
:102C0C000A6822F001020A60026CC06B012101FA11
:102C1C0002F2426083F82110002083F820007047F4
:102C2C0008B590F82130DBB2022B03D00423836368
:102C3C00012008BD0268136823F00E0313600268BC
:102C4C00136823F0010313600368194A934214D0EC
:102C5C00143293421FD0143293421ED0143293423A
:102C6C001ED0143293421ED01432934202D04FF035
:102C7C00807203E04FF4801200E001220D4B5A6089
:102C8C00012380F82130002380F82030436B6BB196
:102C9C0098470020CDE71022F0E74FF48072EDE763
:102CAC004FF48052EAE74FF48032E7E70020C0E7A8
:102CBC00080002400000024038B5C36B1A68046873
:102CCC002568016C04238B40134235D015F0040F9A
:102CDC0032D0236813F0200F03D1236823F00403B0
:102CEC0023600368434A934214D01432934218D0A1
:102CFC001432934217D01432934217D014329342A9
:102D0C0017D01432934202D04FF0806203E04FF49C
:102D1C00800200E00422384B5A60C36A03B1984722
:102D2C0038BD4022F7E74FF48062F4E74FF480425D
:102D3C00F1E74FF48022EEE702238B4013423CD0A4
:102D4C0015F0020F39D0236813F0200F06D1236839
:102D5C0023F00A032360012380F821300368254AFD
:102D6C00934214D0143293421CD0143293421BD091
:102D7C00143293421BD0143293421BD01432934220
:102D8C0002D04FF0007203E04FF4001200E0022278
:102D9C00194B5A60002380F82030836A002BBFD077
:102DAC009847BDE72022F3E74FF40072F0E74FF4A9
:102DBC000052EDE74FF40032EAE708238B40134250
:102DCC00AED015F0080FABD0236823F00E032360B0
:102DDC00026CC16B012303FA02F24A60836380F830
:102DEC002130002380F82030036B002B98D09847BB
:102DFC0096E700BF0800024000000240002808DBF4
:102E0C000901C9B200F1604000F5614080F800137F
:102E1C00704700F00F000901C9B2014B19547047FB
:102E2C0014ED00E000B500F00700C0F1070CBCF198
:102E3C00040F28BF4FF0040C031D062B0FD9C31E23
:102E4C004FF0FF3E0EFA0CF021EA000199400EFA09
:102E5C0003FE22EA0E0241EA02005DF804FB0023A5
:102E6C00EEE70000074AD36823F4E0631B041B0C55
:102E7C00000200F4E060034343F0BF6343F400330B
:102E8C00D360704700ED00E010B50446054BD868E0
:102E9C00C0F30220FFF7C6FF01462046FFF7AEFF46
:102EAC0010BD00BF00ED00E0002807DB00F01F02A2
:102EBC00400901239340024A42F82030704700BF7A
:102ECC0000E100E00138B0F1807F0BD24FF0E0233D
:102EDC005861054AF02182F82310002098610722DE
:102EEC001A6170470120704700ED00E07047000048
:102EFC0010B503460C4A0D490D48006840B10C480A
:102F0C0000680344521A934206D8094A136010BD54
:102F1C000748084C0460F2E7FDF736F90C23036010
:102F2C004FF0FF30F3E700BF00500020000400001A
:102F3C00A01000206011002070B50C46164600252C
:102F4C0006E0AFF30080214601F8010B01350C4679
:102F5C00B542F6DB304670BD70B50C461646002502
:102F6C0004E014F8010BFEF759FF0135B542F8DB0C
:102F7C00304670BD4FF0FF3070474FF400534B603C
:102F8C0000207047012070470020704708B5436A45
:102F9C009A6A12F0500F1ED19A6A42F400729A6229
:102FAC001A68926802F46022B2F5602F03D01846BA
:102FBC00FEF744FF08BD1A7B002AF8D19A6A22F466
:102FCC0080729A629A6A12F4805FF0D19A6A42F027
:102FDC0001029A62EBE71B6A1B6B9847EAE77047A2
:102FEC0008B5406AFFF7FBFF08BD704770B5044693
:102FFC0003681E685D6815F0200F17D016F0020FDD
:10300C0014D0826A12F0100F03D1826A42F400725B
:10301C0082629A6802F46022B2F5602F33D02046A7
:10302C00FEF70CFF23686FF012021A6015F0800F88
:10303C0022D016F0040F1FD0A36A13F0100F03D187
:10304C00A36A43F40053A3622268936803F4E04339
:10305C00B3F5E04F2ED0536813F4806F05D193680D
:10306C0003F46023B3F5602F21D0204600F0FAFA68
:10307C0023686FF00C021A6015F0400F02D016F0A6
:10308C00010F28D170BD227B002AC8D15A6822F0CA
:10309C0020025A60A36A23F48073A362A36A13F418
:1030AC00805FBCD1A36A43F00103A362B7E7237B23
:1030BC00002BDAD1536823F080035360A36A23F406
:1030CC008053A362A36A13F4807FCED1A36A43F02A
:1030DC000103A362C9E7A36A43F48033A3622046C9
:1030EC00FFF783FF23686FF001021A60CAE770478D
:1030FC0008B5406A836A43F040038362C36A43F0B5
:10310C000403C362FFF7F3FF08BD000030B482B0C4
:10311C000022019290F82420012A00F08F800346AF
:10312C00012280F824204A68062A2DD80468606B96
:10313C0002EB8202053A4FF01F0C0CFA02FC20EA5B
:10314C000C000D6805FA02F2024362630A68092A50
:10315C0038D91C68E06802EB42021E3A4FF0070CAB
:10316C000CFA02FC20EA0C008D6805FA02F202430C
:10317C00E2600A68103A012A34D90020002283F850
:10318C00242002B030BC70470C2A0DD80568286B7F
:10319C0002EB8202233A1F24944020EA04000C68BC
:1031AC00944020432863D1E70568E86A02EB820269
:1031BC00413A1F24944020EA04000C6894402043B8
:1031CC00E862C3E71C68206902EB42024FF0070C6F
:1031DC000CFA02FC20EA0C008D6805FA02F202439C
:1031EC002261C6E71A681648824205D09A6A42F0F4
:1031FC0020029A620120C1E7906810F4000F1BD1E5
:10320C00906840F4000090600A68102A01D00020F9
:10321C00B4E70C4A12680C49A1FB0212920C02EBA7
:10322C0082025200019202E0019A013A0192019A43
:10323C00002AF9D10020A1E700209FE70220A0E797
:10324C00002401406C00002083DE1B4330B583B0AA
:10325C000023019303689A6812F0010F33D10446DE
:10326C009A6842F001029A60184B1B68184AA2FB3C
:10327C0003239B0C019302E0019B013B0193019BF7
:10328C00002BF9D1FEF7F2FE054623689B6813F07C
:10329C00010F16D1FEF7EAFE431B022BF5D923686A
:1032AC009B6813F0010FF0D1A36A43F01003A362E3
:1032BC00E36A43F00103E362002384F82430012025
:1032CC0002E0002000E0002003B030BD6C000020C4
:1032DC0083DE1B43F8B504460D4616460168444888
:1032EC00814259D0434B994256D094F82430012B4B
:1032FC007CD0012384F824302046FFF7A7FF074633
:10330C0000286ED1A16A21F4706121F0010141F411
:10331C008071A1622268374B9A4244D0A36A23F48D
:10332C008013A362536813F4806F05D0A36A23F44F
:10333C00405343F48053A362A36A13F4805F48D0D4
:10334C00E36A23F00603E362002384F82430236A43
:10335C00294A9A62236A294ADA62236A284A1A633A
:10336C0023686FF002021A602268936843F480733A
:10337C009360216833462A464C31206AFFF7F2FBF2
:10338C0023689A6802F46022B2F5602F24D09A6800
:10339C0042F480129A6027E0154B5B6813F4702F8F
:1033AC00A3D0012720E0A3F580635B6813F4702F92
:1033BC00B4D0A36A43F48013A3620D4B5B6813F47F
:1033CC00806FB9D0A36A23F4405343F48053A362B3
:1033DC00B2E70023E362B7E79A6842F4A0029A606E
:1033EC0002E0002384F824303846F8BD0227FBE7BE
:1033FC000024014000280140992F0008ED2F0008FF
:10340C00FD30000838B503689A6812F0010F01D13D
:10341C00002038BD04469A6822F001029A60FEF73B
:10342C0025FE054623689B6813F0010F13D0FEF7A9
:10343C001DFE431B022BF5D923689B6813F0010F6B
:10344C00F0D0A36A43F01003A362E36A43F00103D4
:10345C00E3620120DDE70020DBE7000000287BD0E1
:10346C0070B50446836A002B4DD02046FFF7CAFF87
:10347C00A36A13F0100369D1002867D1A26A22F461
:10348C00885222F0020242F00202A2626268E169F2
:10349C000A43217B42EA4102A568B5F5807F02D040
:1034AC00012D36D01D46267D012E35D0266871683B
:1034BC0021F46941294371602568AE682749314080
:1034CC001143A960A168B1F5807F01D0012902D117
:1034DC002369013B1B052568E96A21F470010B4344
:1034EC00EB62236899681E4B0B409A4225D0A36A65
:1034FC0023F0120343F01003A362E36A43F00103C9
:10350C00E362012027E0C36280F8243000F042FC23
:10351C00ABE74FF48075C6E731B9A169013945EACB
:10352C00413141F40065C1E7A16A41F02001A1627B
:10353C00E16A41F00101E162B8E70023E362A36AAA
:10354C0023F0030343F00103A36204E0A36A43F0F6
:10355C001003A362012070BD01207047FDF7E1FF4D
:10356C00FE0E1FFF70B582B00023019390F824303B
:10357C00012B72D00446012380F82430FFF742FF60
:10358C002046FFF763FE054628B1002384F824305B
:10359C00284602B070BDA36A23F4885323F00203BB
:1035AC0043F00203A3622E4B1E680220FFF714F9AE
:1035BC00B6FBF0F67600019602E0019B013B01930D
:1035CC00019B002BF9D12268936843F008039360A8
:1035DC00FEF74CFD064623689A6812F0080F14D0CB
:1035EC00FEF744FD801B0A28F5D923689B6813F06D
:1035FC00080FF0D0A36A23F0120343F01003A36268
:10360C00002384F824300125C2E79A6842F00402B2
:10361C009A60FEF72BFD064623689B6813F0040F97
:10362C0014D0FEF723FD801B0A28F5D923689B686C
:10363C0013F0040FF0D0A36A23F0120343F010032D
:10364C00A362002384F824300125A1E7A36A23F0A8
:10365C00030343F00103A36297E7022598E700BF39
:10366C006C0000207047026802F10C0353E8003F25
:10367C0023F490730C3242E800310029F3D1026834
:10368C0002F1140353E8003F23F00103143242E823
:10369C0000310029F3D1036B012B05D0202380F8D6
:1036AC004230002303637047026802F10C0353E8B5
:1036BC00003F23F010030C3242E800310029F3D113
:1036CC00ECE790F84130DBB2212B01D0022070479F
:1036DC008368B3F5805F17D0036A5A1C02621A78AC
:1036EC0003685A60C38C9BB2013B9BB2C3844BB939
:1036FC000268D36823F08003D3600268D36843F078
:10370C004003D360002070470369002BE4D1036AA7
:10371C001B880268C3F308035360036A0233036215
:10372C00E0E7000010B504460268136923F4405327
:10373C00C1680B43136183680269134342691A43DE
:10374C000168CB6823F4B05323F00C031343CB6014
:10375C000268536923F4407381690B435361026817
:10376C00134B9A4220D0FEF78BFF024602EB8202EB
:10377C0002EB820263689B00B2FBF3F20D48A0FBE4
:10378C0002314909642303FB11231B013233A0FBD3
:10379C0003035B0903F0F00202EB011203F00F03C9
:1037AC00216813448B6010BDFEF77AFF0246DDE7FB
:1037BC00003801401F85EB512DE9F84305460F46B3
:1037CC0016469946DDF820802B681C6837EA0404FD
:1037DC000CBF01240024B4422DD1B8F1FF3FF3D02B
:1037EC00B8F1000F05D0FEF741FCA0EB09004045F5
:1037FC00EAD92A6802F10C0353E8003F23F4D07392
:10380C000C3242E800310029F3D12A6802F114038A
:10381C0053E8003F23F00103143242E80031002941
:10382C00F3D1202385F8413085F84230002385F808
:10383C004030032000E00020BDE8F88360B310B5F1
:10384C00044690F8413013B3242384F841302268A5
:10385C00D36823F40053D3602046FFF763FF22683C
:10386C00136923F4904313612268536923F02A03EC
:10387C0053612268D36843F40053D3600020606422
:10388C00202384F8413084F84230606310BD80F806
:10389C00403000F009FBD7E7012070472DE9F041DB
:1038AC0082B01E4690F84130DBB2202B4BD104463F
:1038BC000D46904600294AD00AB9012044E0002365
:1038CC004364212380F84130FEF7D0FB0746A4F86F
:1038DC002480A4F82680A368B3F5805F02D04FF053
:1038EC0000080FE02369FBB14FF000080AE038F83C
:1038FC00023B2268C3F308035360E28C92B2013A94
:10390C0092B2E284E38C9BB28BB100963B460022D0
:10391C0080212046FFF750FFD8B9002DE7D015F8CD
:10392C00012B23685A60E8E7A8460025EAE70096D1
:10393C003B46002240212046FFF73EFF58B920238A
:10394C0084F8413000E0022002B0BDE8F081012093
:10395C00FAE70320F8E70320F6E7704708B501689B
:10396C00CA6822F04002CA60202280F84120FFF78A
:10397C00F4FF002008BD7047704708B5406A00236B
:10398C00C385C384FFF7F8FF08BD704790F8423039
:10399C00DBB2222B69D18368B3F5805F4FD0826A8A
:1039AC00B3F5805F04D0002B56D10369002B53D1A3
:1039BC0003685B681370836A01338362C38D9BB2A7
:1039CC00013B9BB2C385002B51D100B583B002687B
:1039DC00D36823F02003D3600268D36823F4807388
:1039EC00D3600268536923F001035361202380F8EC
:1039FC00423000234363036B012B33D10023036359
:103A0C00026802F10C0353E8003F23F010030C3260
:103A1C0042E800310029F3D103681A6812F0100F44
:103A2C0006D0002201921A6801925B680193019BF7
:103A3C00818DFFF7AAFF002003B05DF804FB02693B
:103A4C00002AACD1826A03685B68C3F30803138055
:103A5C00836A02338362B1E703685B6803F07F0318
:103A6C001370A8E7FFF787FFE5E7022070470020F7
:103A7C007047000010B582B0044602681368D06825
:103A8C00516913F00F0F09D113F0200F0CD010F067
:103A9C00200F09D02046FFF779FF16E011F0010145
:103AAC0015D110F4907F12D1216B012979D013F02C
:103ABC00800F03D010F0800F40F0138113F0400FF3
:103ACC0003D010F0400F40F0108102B010BD13F085
:103ADC00010F06D010F4807F03D0626C42F001021B
:103AEC00626413F0040F04D019B1626C42F002024C
:103AFC00626413F0020F04D019B1626C42F004023C
:103B0C00626413F0080F07D010F0200F00D119B128
:103B1C00626C42F008026264626C002AD5D013F029
:103B2C00200F02D010F0200F29D123685B6903F01D
:103B3C004003626C12F0080F00D163B32046FFF70C
:103B4C0092FD23685B6913F0400F20D0226802F1CC
:103B5C00140353E8003F23F04003143242E80031D1
:103B6C000029F3D1E36B73B1624A5A63E06BFFF740
:103B7C0057F80028A9D0E06B436B9847A5E720467F
:103B8C00FFF704FFD1E72046FFF7F6FE9DE720463E
:103B9C00FFF7F2FE99E72046FFF7EEFE0023636481
:103BAC0093E713F0100F82D010F0100F3FF47FAF9B
:103BBC00002301931368019353680193019B53698C
:103BCC0013F0400F51D0E26B13685B689BB2002B73
:103BDC003FF47BAFA18D99427FF677AFE385936974
:103BEC00202B37D0226802F10C0353E8003F23F45A
:103BFC0080730C3242E800310029F3D1226802F1C3
:103C0C00140353E8003F23F00103143242E800315F
:103C1C000029F3D1226802F1140353E8003F23F08A
:103C2C004003143242E800310029F3D1202384F8F8
:103C3C00423000232363226802F10C0353E8003F57
:103C4C0023F010030C3242E800310029F3D1E06B71
:103C5C00FEF7C3FF02236363A18DE38D9BB2C91AE8
:103C6C0089B22046FFF791FE2FE7A18DE38D9BB221
:103C7C00C91A89B2E38D9BB2002B3FF426AF002901
:103C8C003FF423AF226802F10C0353E8003F23F406
:103C9C0090730C3242E800300028F3D1226802F114
:103CAC00140353E8003F23F00103143242E80030C0
:103CBC000028F3D1202384F84230002323632268A8
:103CCC0002F10C0353E8003F23F010030C3242E8DE
:103CDC0000300028F3D1022363632046FFF755FE22
:103CEC00F3E62046FFF7EDFCEFE62046FFF736FE45
:103CFC00EBE600BF8739000884B00F4B9A6942F09D
:103D0C0010029A619A6902F010020192019A9A6962
:103D1C0042F020029A619A6902F020020292029A01
:103D2C009A6942F004029A619B6903F004030393BD
:103D3C00039B04B0704700BF0010024000B585B073
:103D4C0000230193029303931048114A026083608D
:103D5C000122027303754FF46021C161436002615B
:103D6C00FFF77CFB60B901230193029300230393BB
:103D7C0001A90648FFF7CAF928B905B05DF804FB9C
:103D8C00FEF762F8EFE7FEF75FF8F6E7E8100020C1
:103D9C000024014010B586B00023029303930493D2
:103DAC0005930268224B9A4201D006B010BD04461E
:103DBC0003F56C439A6942F400729A619A6902F4B1
:103DCC0000720092009A9A6942F004029A619B690F
:103DDC0003F004030193019B022302930323039337
:103DEC0002A91448FEF764FD1348144B036000232A
:103DFC00436083608022C2604FF4007202614FF412
:103E0C000062426120228261C361FEF775FE58B9DF
:103E1C00094B23625C62002211461220FFF734F832
:103E2C001220FFF741F8C0E7FEF70EF8F0E700BFED
:103E3C000024014000080140A410002008000240AA
:103E4C0000B583B00A4B5A6942F001025A615B69B2
:103E5C0003F001030193019B002211460B20FFF795
:103E6C0013F80B20FFF720F803B05DF804FB00BF3C
:103E7C000010024008B50A480A4B03604FF4165371
:103E8C00436000238360C36003610C224261836141
:103E9C00C361FFF7D3FC00B908BDFDF7D5FFFBE705
:103EAC00181100200038014030B587B00023029370
:103EBC0003930493059302681B4B9A4201D007B0FD
:103ECC0030BD03F558439A6942F480429A619A696D
:103EDC0002F480420092009A9A6942F004029A61BC
:103EEC009B6903F004030193019B4FF4007302934D
:103EFC0002230393032305930C4D02A92846FEF7D6
:103F0C00D7FC4FF48063029300240394049402A919
:103F1C002846FEF7CDFC224621462520FEF7B4FFAD
:103F2C002520FEF7C1FFCAE7003801400008014018
:103F3C00FEF7DCFF0B480C490C4A002302E0D45876
:103F4C00C4500433C4188C42F9D3094A094C0023D9
:103F5C0001E013600432A242FBD3FCF71BF9FDF71E
:103F6C00B7FF704700000020700000209040000850
:103F7C007000002060110020FEE70000F8B500BFC3
:103F8C00F8BC08BC9E467047F8B500BFF8BC08BC2E
:043F9C009E46704786
:103FA00004000020000000000000000000000000ED
:103FB0000000000000000000000000000000000001
:103FC00000000000000000000000000000000000F1
:103FD00000000000000000000000000000000000E1
:103FE00000000000000000000000000000000000D1
:103FF00000000000000000000000000000000000C1
:104000000000000025640D0A00000000010200000D
:1040100002030405060708090A0B0C0D0E0F101009
:104020000102000002030405060708090A0B0C0D33
:104030000E0F101000000000010203040000000039
:10404000000000000102030406070809232D302B9D
:1040500020000000686C4C0065666745464700001C
:1040600030313233343536373839414243444546AE
:104070000000000030313233343536373839616270
:084080006364656600000000A6
:0440880075010008B6
:04408C004D010008DA
:104090000400002000000000E43F0008C43F0008C6
:1040A000A43F000800000000000000000000000025
:1040B0000000000000000000000000000000000000
:1040C00000000000000000000000000000000000F0
:1040D00000000000000000000000000000000000E0
:1040E00000000000000000000000000000000000D0
:1040F0000000000001000000100000000024F40097
:0400000508003F3D73
:00000001FF
